{
  "_format": "hh-sol-artifact-1",
  "contractName": "ALUAssetRegistry",
  "sourceName": "contracts/ALUAssetRegistry.sol",
  "abi": [
    {
      "inputs": [],
      "stateMutability": "nonpayable",
      "type": "constructor"
    },
    {
      "anonymous": false,
      "inputs": [
        {
          "indexed": true,
          "internalType": "address",
          "name": "owner",
          "type": "address"
        },
        {
          "indexed": true,
          "internalType": "address",
          "name": "approved",
          "type": "address"
        },
        {
          "indexed": true,
          "internalType": "uint256",
          "name": "tokenId",
          "type": "uint256"
        }
      ],
      "name": "Approval",
      "type": "event"
    },
    {
      "anonymous": false,
      "inputs": [
        {
          "indexed": true,
          "internalType": "address",
          "name": "owner",
          "type": "address"
        },
        {
          "indexed": true,
          "internalType": "address",
          "name": "operator",
          "type": "address"
        },
        {
          "indexed": false,
          "internalType": "bool",
          "name": "approved",
          "type": "bool"
        }
      ],
      "name": "ApprovalForAll",
      "type": "event"
    },
    {
      "anonymous": false,
      "inputs": [
        {
          "indexed": true,
          "internalType": "uint256",
          "name": "tokenId",
          "type": "uint256"
        },
        {
          "indexed": true,
          "internalType": "address",
          "name": "owner",
          "type": "address"
        },
        {
          "indexed": false,
          "internalType": "string",
          "name": "assetName",
          "type": "string"
        },
        {
          "indexed": false,
          "internalType": "bytes32",
          "name": "contentHash",
          "type": "bytes32"
        },
        {
          "indexed": false,
          "internalType": "uint256",
          "name": "timestamp",
          "type": "uint256"
        }
      ],
      "name": "AssetRegistered",
      "type": "event"
    },
    {
      "anonymous": false,
      "inputs": [
        {
          "indexed": true,
          "internalType": "address",
          "name": "from",
          "type": "address"
        },
        {
          "indexed": true,
          "internalType": "address",
          "name": "to",
          "type": "address"
        },
        {
          "indexed": true,
          "internalType": "uint256",
          "name": "tokenId",
          "type": "uint256"
        }
      ],
      "name": "Transfer",
      "type": "event"
    },
    {
      "inputs": [
        {
          "internalType": "address",
          "name": "to",
          "type": "address"
        },
        {
          "internalType": "uint256",
          "name": "tokenId",
          "type": "uint256"
        }
      ],
      "name": "approve",
      "outputs": [],
      "stateMutability": "nonpayable",
      "type": "function"
    },
    {
      "inputs": [
        {
          "internalType": "address",
          "name": "owner",
          "type": "address"
        }
      ],
      "name": "balanceOf",
      "outputs": [
        {
          "internalType": "uint256",
          "name": "",
          "type": "uint256"
        }
      ],
      "stateMutability": "view",
      "type": "function"
    },
    {
      "inputs": [
        {
          "internalType": "uint256",
          "name": "tokenId",
          "type": "uint256"
        }
      ],
      "name": "getApproved",
      "outputs": [
        {
          "internalType": "address",
          "name": "",
          "type": "address"
        }
      ],
      "stateMutability": "view",
      "type": "function"
    },
    {
      "inputs": [
        {
          "internalType": "uint256",
          "name": "tokenId",
          "type": "uint256"
        }
      ],
      "name": "getAsset",
      "outputs": [
        {
          "components": [
            {
              "internalType": "string",
              "name": "assetName",
              "type": "string"
            },
            {
              "internalType": "string",
              "name": "fileType",
              "type": "string"
            },
            {
              "internalType": "bytes32",
              "name": "contentHash",
              "type": "bytes32"
            },
            {
              "internalType": "address",
              "name": "registeredBy",
              "type": "address"
            },
            {
              "internalType": "uint256",
              "name": "registeredAt",
              "type": "uint256"
            }
          ],
          "internalType": "struct ALUAssetRegistry.AssetMetadata",
          "name": "",
          "type": "tuple"
        }
      ],
      "stateMutability": "view",
      "type": "function"
    },
    {
      "inputs": [
        {
          "internalType": "bytes32",
          "name": "",
          "type": "bytes32"
        }
      ],
      "name": "hashExists",
      "outputs": [
        {
          "internalType": "bool",
          "name": "",
          "type": "bool"
        }
      ],
      "stateMutability": "view",
      "type": "function"
    },
    {
      "inputs": [
        {
          "internalType": "address",
          "name": "owner",
          "type": "address"
        },
        {
          "internalType": "address",
          "name": "operator",
          "type": "address"
        }
      ],
      "name": "isApprovedForAll",
      "outputs": [
        {
          "internalType": "bool",
          "name": "",
          "type": "bool"
        }
      ],
      "stateMutability": "view",
      "type": "function"
    },
    {
      "inputs": [],
      "name": "name",
      "outputs": [
        {
          "internalType": "string",
          "name": "",
          "type": "string"
        }
      ],
      "stateMutability": "view",
      "type": "function"
    },
    {
      "inputs": [
        {
          "internalType": "uint256",
          "name": "tokenId",
          "type": "uint256"
        }
      ],
      "name": "ownerOf",
      "outputs": [
        {
          "internalType": "address",
          "name": "",
          "type": "address"
        }
      ],
      "stateMutability": "view",
      "type": "function"
    },
    {
      "inputs": [
        {
          "internalType": "string",
          "name": "assetName",
          "type": "string"
        },
        {
          "internalType": "string",
          "name": "fileType",
          "type": "string"
        },
        {
          "internalType": "bytes32",
          "name": "contentHash",
          "type": "bytes32"
        }
      ],
      "name": "registerAsset",
      "outputs": [
        {
          "internalType": "uint256",
          "name": "",
          "type": "uint256"
        }
      ],
      "stateMutability": "nonpayable",
      "type": "function"
    },
    {
      "inputs": [
        {
          "internalType": "address",
          "name": "from",
          "type": "address"
        },
        {
          "internalType": "address",
          "name": "to",
          "type": "address"
        },
        {
          "internalType": "uint256",
          "name": "tokenId",
          "type": "uint256"
        }
      ],
      "name": "safeTransferFrom",
      "outputs": [],
      "stateMutability": "nonpayable",
      "type": "function"
    },
    {
      "inputs": [
        {
          "internalType": "address",
          "name": "from",
          "type": "address"
        },
        {
          "internalType": "address",
          "name": "to",
          "type": "address"
        },
        {
          "internalType": "uint256",
          "name": "tokenId",
          "type": "uint256"
        },
        {
          "internalType": "bytes",
          "name": "data",
          "type": "bytes"
        }
      ],
      "name": "safeTransferFrom",
      "outputs": [],
      "stateMutability": "nonpayable",
      "type": "function"
    },
    {
      "inputs": [
        {
          "internalType": "address",
          "name": "operator",
          "type": "address"
        },
        {
          "internalType": "bool",
          "name": "approved",
          "type": "bool"
        }
      ],
      "name": "setApprovalForAll",
      "outputs": [],
      "stateMutability": "nonpayable",
      "type": "function"
    },
    {
      "inputs": [
        {
          "internalType": "bytes4",
          "name": "interfaceId",
          "type": "bytes4"
        }
      ],
      "name": "supportsInterface",
      "outputs": [
        {
          "internalType": "bool",
          "name": "",
          "type": "bool"
        }
      ],
      "stateMutability": "view",
      "type": "function"
    },
    {
      "inputs": [],
      "name": "symbol",
      "outputs": [
        {
          "internalType": "string",
          "name": "",
          "type": "string"
        }
      ],
      "stateMutability": "view",
      "type": "function"
    },
    {
      "inputs": [
        {
          "internalType": "uint256",
          "name": "tokenId",
          "type": "uint256"
        }
      ],
      "name": "tokenURI",
      "outputs": [
        {
          "internalType": "string",
          "name": "",
          "type": "string"
        }
      ],
      "stateMutability": "view",
      "type": "function"
    },
    {
      "inputs": [
        {
          "internalType": "address",
          "name": "from",
          "type": "address"
        },
        {
          "internalType": "address",
          "name": "to",
          "type": "address"
        },
        {
          "internalType": "uint256",
          "name": "tokenId",
          "type": "uint256"
        }
      ],
      "name": "transferFrom",
      "outputs": [],
      "stateMutability": "nonpayable",
      "type": "function"
    },
    {
      "inputs": [
        {
          "internalType": "uint256",
          "name": "tokenId",
          "type": "uint256"
        },
        {
          "internalType": "bytes32",
          "name": "suppliedHash",
          "type": "bytes32"
        }
      ],
      "name": "verifyLogoIntegrity",
      "outputs": [
        {
          "internalType": "bool",
          "name": "",
          "type": "bool"
        },
        {
          "internalType": "string",
          "name": "",
          "type": "string"
        }
      ],
      "stateMutability": "view",
      "type": "function"
    }
  ],
  "bytecode": "0x608060405234801561001057600080fd5b506040518060400160405280601281526020017f414c5520417373657420526567697374727900000000000000000000000000008152506040518060400160405280600581526020017f414c554152000000000000000000000000000000000000000000000000000000815250816000908161008c91906102f4565b50806001908161009c91906102f4565b5050506103c6565b600081519050919050565b7f4e487b7100000000000000000000000000000000000000000000000000000000600052604160045260246000fd5b7f4e487b7100000000000000000000000000000000000000000000000000000000600052602260045260246000fd5b6000600282049050600182168061012557607f821691505b602082108103610138576101376100de565b5b50919050565b60008190508160005260206000209050919050565b60006020601f8301049050919050565b600082821b905092915050565b6000600883026101a07fffffffffffffffffffffffffffffffffffffffffffffffffffffffffffffffff82610163565b6101aa8683610163565b95508019841693508086168417925050509392505050565b6000819050919050565b6000819050919050565b60006101f16101ec6101e7846101c2565b6101cc565b6101c2565b9050919050565b6000819050919050565b61020b836101d6565b61021f610217826101f8565b848454610170565b825550505050565b600090565b610234610227565b61023f818484610202565b505050565b5b818110156102635761025860008261022c565b600181019050610245565b5050565b601f8211156102a8576102798161013e565b61028284610153565b81016020851015610291578190505b6102a561029d85610153565b830182610244565b50505b505050565b600082821c905092915050565b60006102cb600019846008026102ad565b1980831691505092915050565b60006102e483836102ba565b9150826002028217905092915050565b6102fd826100a4565b67ffffffffffffffff811115610316576103156100af565b5b610320825461010d565b61032b828285610267565b600060209050601f83116001811461035e576000841561034c578287015190505b61035685826102d8565b8655506103be565b601f19841661036c8661013e565b60005b828110156103945784890151825560018201915060208501945060208101905061036f565b868310156103b157848901516103ad601f8916826102ba565b8355505b6001600288020188555050505b505050505050565b613261806103d56000396000f3fe608060405234801561001057600080fd5b506004361061010b5760003560e01c80638802a541116100a2578063b535b5c311610071578063b535b5c3146102dd578063b88d4fde1461030d578063c87b56dd14610329578063e985e9c514610359578063eac8f5b8146103895761010b565b80638802a5411461024257806395d89b411461027257806397e430ee14610290578063a22cb465146102c15761010b565b806323b872dd116100de57806323b872dd146101aa57806342842e0e146101c65780636352211e146101e257806370a08231146102125761010b565b806301ffc9a71461011057806306fdde0314610140578063081812fc1461015e578063095ea7b31461018e575b600080fd5b61012a60048036038101906101259190611e2e565b6103b9565b6040516101379190611e76565b60405180910390f35b61014861049b565b6040516101559190611f21565b60405180910390f35b61017860048036038101906101739190611f79565b61052d565b6040516101859190611fe7565b60405180910390f35b6101a860048036038101906101a3919061202e565b610573565b005b6101c460048036038101906101bf919061206e565b61068a565b005b6101e060048036038101906101db919061206e565b6106ea565b005b6101fc60048036038101906101f79190611f79565b61070a565b6040516102099190611fe7565b60405180910390f35b61022c600480360381019061022791906120c1565b610790565b60405161023991906120fd565b60405180910390f35b61025c60048036038101906102579190612283565b610847565b60405161026991906120fd565b60405180910390f35b61027a610a37565b6040516102879190611f21565b60405180910390f35b6102aa60048036038101906102a5919061230e565b610ac9565b6040516102b892919061234e565b60405180910390f35b6102db60048036038101906102d691906123aa565b610be6565b005b6102f760048036038101906102f291906123ea565b610bfc565b6040516103049190611e76565b60405180910390f35b610327600480360381019061032291906124b8565b610c1c565b005b610343600480360381019061033e9190611f79565b610c7e565b6040516103509190611f21565b60405180910390f35b610373600480360381019061036e919061253b565b610ce6565b6040516103809190611e76565b60405180910390f35b6103a3600480360381019061039e9190611f79565b610d7a565b6040516103b0919061266f565b60405180910390f35b60007f80ac58cd000000000000000000000000000000000000000000000000000000007bffffffffffffffffffffffffffffffffffffffffffffffffffffffff1916827bffffffffffffffffffffffffffffffffffffffffffffffffffffffff1916148061048457507f5b5e139f000000000000000000000000000000000000000000000000000000007bffffffffffffffffffffffffffffffffffffffffffffffffffffffff1916827bffffffffffffffffffffffffffffffffffffffffffffffffffffffff1916145b80610494575061049382610fac565b5b9050919050565b6060600080546104aa906126c0565b80601f01602080910402602001604051908101604052809291908181526020018280546104d6906126c0565b80156105235780601f106104f857610100808354040283529160200191610523565b820191906000526020600020905b81548152906001019060200180831161050657829003601f168201915b5050505050905090565b600061053882611016565b6004600083815260200190815260200160002060009054906101000a900473ffffffffffffffffffffffffffffffffffffffff169050919050565b600061057e8261070a565b90508073ffffffffffffffffffffffffffffffffffffffff168373ffffffffffffffffffffffffffffffffffffffff16036105ee576040517f08c379a00000000000000000000000000000000000000000000000000000000081526004016105e590612763565b60405180910390fd5b8073ffffffffffffffffffffffffffffffffffffffff1661060d611061565b73ffffffffffffffffffffffffffffffffffffffff16148061063c575061063b81610636611061565b610ce6565b5b61067b576040517f08c379a0000000000000000000000000000000000000000000000000000000008152600401610672906127f5565b60405180910390fd5b6106858383611069565b505050565b61069b610695611061565b82611122565b6106da576040517f08c379a00000000000000000000000000000000000000000000000000000000081526004016106d190612887565b60405180910390fd5b6106e58383836111b7565b505050565b61070583838360405180602001604052806000815250610c1c565b505050565b600080610716836114b0565b9050600073ffffffffffffffffffffffffffffffffffffffff168173ffffffffffffffffffffffffffffffffffffffff1603610787576040517f08c379a000000000000000000000000000000000000000000000000000000000815260040161077e906128f3565b60405180910390fd5b80915050919050565b60008073ffffffffffffffffffffffffffffffffffffffff168273ffffffffffffffffffffffffffffffffffffffff1603610800576040517f08c379a00000000000000000000000000000000000000000000000000000000081526004016107f790612985565b60405180910390fd5b600360008373ffffffffffffffffffffffffffffffffffffffff1673ffffffffffffffffffffffffffffffffffffffff168152602001908152602001600020549050919050565b60006008600083815260200190815260200160002060009054906101000a900460ff16156108aa576040517f08c379a00000000000000000000000000000000000000000000000000000000081526004016108a1906129f1565b60405180910390fd5b600660008154809291906108bd90612a40565b9190505550600060065490506108d333826114ed565b6040518060a001604052808681526020018581526020018481526020013373ffffffffffffffffffffffffffffffffffffffff168152602001428152506007600083815260200190815260200160002060008201518160000190816109389190612c34565b50602082015181600101908161094e9190612c34565b506040820151816002015560608201518160030160006101000a81548173ffffffffffffffffffffffffffffffffffffffff021916908373ffffffffffffffffffffffffffffffffffffffff1602179055506080820151816004015590505060016008600085815260200190815260200160002060006101000a81548160ff0219169083151502179055503373ffffffffffffffffffffffffffffffffffffffff16817fbb6dda3cba3ddfd3aade85159e5a3e5f09599495cb6deb513feef9a30b41976c878642604051610a2493929190612d15565b60405180910390a3809150509392505050565b606060018054610a46906126c0565b80601f0160208091040260200160405190810160405280929190818152602001828054610a72906126c0565b8015610abf5780601f10610a9457610100808354040283529160200191610abf565b820191906000526020600020905b815481529060010190602001808311610aa257829003601f168201915b5050505050905090565b60006060600073ffffffffffffffffffffffffffffffffffffffff16610aee856114b0565b73ffffffffffffffffffffffffffffffffffffffff1603610b44576040517f08c379a0000000000000000000000000000000000000000000000000000000008152600401610b3b90612d9f565b60405180910390fd5b82600760008681526020019081526020016000206002015403610ba25760016040518060400160405280601281526020017f4c6f676f2069732061757468656e7469632e000000000000000000000000000081525091509150610bdf565b60006040518060400160405280601d81526020017f5761726e696e673a204c6f676f20646f6573206e6f74206d617463682e000000815250915091505b9250929050565b610bf8610bf1611061565b838361150b565b5050565b60086020528060005260406000206000915054906101000a900460ff1681565b610c2d610c27611061565b83611122565b610c6c576040517f08c379a0000000000000000000000000000000000000000000000000000000008152600401610c6390612887565b60405180910390fd5b610c7884848484611677565b50505050565b6060610c8982611016565b6000610c936116d3565b90506000815111610cb35760405180602001604052806000815250610cde565b80610cbd846116ea565b604051602001610cce929190612dfb565b6040516020818303038152906040525b915050919050565b6000600560008473ffffffffffffffffffffffffffffffffffffffff1673ffffffffffffffffffffffffffffffffffffffff16815260200190815260200160002060008373ffffffffffffffffffffffffffffffffffffffff1673ffffffffffffffffffffffffffffffffffffffff16815260200190815260200160002060009054906101000a900460ff16905092915050565b610d82611d7a565b600073ffffffffffffffffffffffffffffffffffffffff16610da3836114b0565b73ffffffffffffffffffffffffffffffffffffffff1603610df9576040517f08c379a0000000000000000000000000000000000000000000000000000000008152600401610df090612d9f565b60405180910390fd5b600760008381526020019081526020016000206040518060a0016040529081600082018054610e27906126c0565b80601f0160208091040260200160405190810160405280929190818152602001828054610e53906126c0565b8015610ea05780601f10610e7557610100808354040283529160200191610ea0565b820191906000526020600020905b815481529060010190602001808311610e8357829003601f168201915b50505050508152602001600182018054610eb9906126c0565b80601f0160208091040260200160405190810160405280929190818152602001828054610ee5906126c0565b8015610f325780601f10610f0757610100808354040283529160200191610f32565b820191906000526020600020905b815481529060010190602001808311610f1557829003601f168201915b50505050508152602001600282015481526020016003820160009054906101000a900473ffffffffffffffffffffffffffffffffffffffff1673ffffffffffffffffffffffffffffffffffffffff1673ffffffffffffffffffffffffffffffffffffffff1681526020016004820154815250509050919050565b60007f01ffc9a7000000000000000000000000000000000000000000000000000000007bffffffffffffffffffffffffffffffffffffffffffffffffffffffff1916827bffffffffffffffffffffffffffffffffffffffffffffffffffffffff1916149050919050565b61101f816117b8565b61105e576040517f08c379a0000000000000000000000000000000000000000000000000000000008152600401611055906128f3565b60405180910390fd5b50565b600033905090565b816004600083815260200190815260200160002060006101000a81548173ffffffffffffffffffffffffffffffffffffffff021916908373ffffffffffffffffffffffffffffffffffffffff160217905550808273ffffffffffffffffffffffffffffffffffffffff166110dc8361070a565b73ffffffffffffffffffffffffffffffffffffffff167f8c5be1e5ebec7d5bd14f71427d1e84f3dd0314c0f7b2291e5b200ac8c7c3b92560405160405180910390a45050565b60008061112e8361070a565b90508073ffffffffffffffffffffffffffffffffffffffff168473ffffffffffffffffffffffffffffffffffffffff161480611170575061116f8185610ce6565b5b806111ae57508373ffffffffffffffffffffffffffffffffffffffff166111968461052d565b73ffffffffffffffffffffffffffffffffffffffff16145b91505092915050565b8273ffffffffffffffffffffffffffffffffffffffff166111d78261070a565b73ffffffffffffffffffffffffffffffffffffffff161461122d576040517f08c379a000000000000000000000000000000000000000000000000000000000815260040161122490612e91565b60405180910390fd5b600073ffffffffffffffffffffffffffffffffffffffff168273ffffffffffffffffffffffffffffffffffffffff160361129c576040517f08c379a000000000000000000000000000000000000000000000000000000000815260040161129390612f23565b60405180910390fd5b6112a983838360016117f9565b8273ffffffffffffffffffffffffffffffffffffffff166112c98261070a565b73ffffffffffffffffffffffffffffffffffffffff161461131f576040517f08c379a000000000000000000000000000000000000000000000000000000000815260040161131690612e91565b60405180910390fd5b6004600082815260200190815260200160002060006101000a81549073ffffffffffffffffffffffffffffffffffffffff02191690556001600360008573ffffffffffffffffffffffffffffffffffffffff1673ffffffffffffffffffffffffffffffffffffffff168152602001908152602001600020600082825403925050819055506001600360008473ffffffffffffffffffffffffffffffffffffffff1673ffffffffffffffffffffffffffffffffffffffff16815260200190815260200160002060008282540192505081905550816002600083815260200190815260200160002060006101000a81548173ffffffffffffffffffffffffffffffffffffffff021916908373ffffffffffffffffffffffffffffffffffffffff160217905550808273ffffffffffffffffffffffffffffffffffffffff168473ffffffffffffffffffffffffffffffffffffffff167fddf252ad1be2c89b69c2b068fc378daa952ba7f163c4a11628f55a4df523b3ef60405160405180910390a46114ab83838360016117ff565b505050565b60006002600083815260200190815260200160002060009054906101000a900473ffffffffffffffffffffffffffffffffffffffff169050919050565b611507828260405180602001604052806000815250611805565b5050565b8173ffffffffffffffffffffffffffffffffffffffff168373ffffffffffffffffffffffffffffffffffffffff1603611579576040517f08c379a000000000000000000000000000000000000000000000000000000000815260040161157090612f8f565b60405180910390fd5b80600560008573ffffffffffffffffffffffffffffffffffffffff1673ffffffffffffffffffffffffffffffffffffffff16815260200190815260200160002060008473ffffffffffffffffffffffffffffffffffffffff1673ffffffffffffffffffffffffffffffffffffffff16815260200190815260200160002060006101000a81548160ff0219169083151502179055508173ffffffffffffffffffffffffffffffffffffffff168373ffffffffffffffffffffffffffffffffffffffff167f17307eab39ab6107e8899845ad3d59bd9653f200f220920489ca2b5937696c318360405161166a9190611e76565b60405180910390a3505050565b6116828484846111b7565b61168e84848484611860565b6116cd576040517f08c379a00000000000000000000000000000000000000000000000000000000081526004016116c490613021565b60405180910390fd5b50505050565b606060405180602001604052806000815250905090565b6060600060016116f9846119e7565b01905060008167ffffffffffffffff81111561171857611717612122565b5b6040519080825280601f01601f19166020018201604052801561174a5781602001600182028036833780820191505090505b509050600082602001820190505b6001156117ad578080600190039150507f3031323334353637383961626364656600000000000000000000000000000000600a86061a8153600a85816117a1576117a0613041565b5b04945060008503611758575b819350505050919050565b60008073ffffffffffffffffffffffffffffffffffffffff166117da836114b0565b73ffffffffffffffffffffffffffffffffffffffff1614159050919050565b50505050565b50505050565b61180f8383611b3a565b61181c6000848484611860565b61185b576040517f08c379a000000000000000000000000000000000000000000000000000000000815260040161185290613021565b60405180910390fd5b505050565b60006118818473ffffffffffffffffffffffffffffffffffffffff16611d57565b156119da578373ffffffffffffffffffffffffffffffffffffffff1663150b7a026118aa611061565b8786866040518563ffffffff1660e01b81526004016118cc94939291906130c5565b6020604051808303816000875af192505050801561190857506040513d601f19601f820116820180604052508101906119059190613126565b60015b61198a573d8060008114611938576040519150601f19603f3d011682016040523d82523d6000602084013e61193d565b606091505b506000815103611982576040517f08c379a000000000000000000000000000000000000000000000000000000000815260040161197990613021565b60405180910390fd5b805181602001fd5b63150b7a0260e01b7bffffffffffffffffffffffffffffffffffffffffffffffffffffffff1916817bffffffffffffffffffffffffffffffffffffffffffffffffffffffff1916149150506119df565b600190505b949350505050565b600080600090507a184f03e93ff9f4daa797ed6e38ed64bf6a1f0100000000000000008310611a45577a184f03e93ff9f4daa797ed6e38ed64bf6a1f0100000000000000008381611a3b57611a3a613041565b5b0492506040810190505b6d04ee2d6d415b85acef81000000008310611a82576d04ee2d6d415b85acef81000000008381611a7857611a77613041565b5b0492506020810190505b662386f26fc100008310611ab157662386f26fc100008381611aa757611aa6613041565b5b0492506010810190505b6305f5e1008310611ada576305f5e1008381611ad057611acf613041565b5b0492506008810190505b6127108310611aff576127108381611af557611af4613041565b5b0492506004810190505b60648310611b225760648381611b1857611b17613041565b5b0492506002810190505b600a8310611b31576001810190505b80915050919050565b600073ffffffffffffffffffffffffffffffffffffffff168273ffffffffffffffffffffffffffffffffffffffff1603611ba9576040517f08c379a0000000000000000000000000000000000000000000000000000000008152600401611ba09061319f565b60405180910390fd5b611bb2816117b8565b15611bf2576040517f08c379a0000000000000000000000000000000000000000000000000000000008152600401611be99061320b565b60405180910390fd5b611c006000838360016117f9565b611c09816117b8565b15611c49576040517f08c379a0000000000000000000000000000000000000000000000000000000008152600401611c409061320b565b60405180910390fd5b6001600360008473ffffffffffffffffffffffffffffffffffffffff1673ffffffffffffffffffffffffffffffffffffffff16815260200190815260200160002060008282540192505081905550816002600083815260200190815260200160002060006101000a81548173ffffffffffffffffffffffffffffffffffffffff021916908373ffffffffffffffffffffffffffffffffffffffff160217905550808273ffffffffffffffffffffffffffffffffffffffff16600073ffffffffffffffffffffffffffffffffffffffff167fddf252ad1be2c89b69c2b068fc378daa952ba7f163c4a11628f55a4df523b3ef60405160405180910390a4611d536000838360016117ff565b5050565b6000808273ffffffffffffffffffffffffffffffffffffffff163b119050919050565b6040518060a00160405280606081526020016060815260200160008019168152602001600073ffffffffffffffffffffffffffffffffffffffff168152602001600081525090565b6000604051905090565b600080fd5b600080fd5b60007fffffffff0000000000000000000000000000000000000000000000000000000082169050919050565b611e0b81611dd6565b8114611e1657600080fd5b50565b600081359050611e2881611e02565b92915050565b600060208284031215611e4457611e43611dcc565b5b6000611e5284828501611e19565b91505092915050565b60008115159050919050565b611e7081611e5b565b82525050565b6000602082019050611e8b6000830184611e67565b92915050565b600081519050919050565b600082825260208201905092915050565b60005b83811015611ecb578082015181840152602081019050611eb0565b60008484015250505050565b6000601f19601f8301169050919050565b6000611ef382611e91565b611efd8185611e9c565b9350611f0d818560208601611ead565b611f1681611ed7565b840191505092915050565b60006020820190508181036000830152611f3b8184611ee8565b905092915050565b6000819050919050565b611f5681611f43565b8114611f6157600080fd5b50565b600081359050611f7381611f4d565b92915050565b600060208284031215611f8f57611f8e611dcc565b5b6000611f9d84828501611f64565b91505092915050565b600073ffffffffffffffffffffffffffffffffffffffff82169050919050565b6000611fd182611fa6565b9050919050565b611fe181611fc6565b82525050565b6000602082019050611ffc6000830184611fd8565b92915050565b61200b81611fc6565b811461201657600080fd5b50565b60008135905061202881612002565b92915050565b6000806040838503121561204557612044611dcc565b5b600061205385828601612019565b925050602061206485828601611f64565b9150509250929050565b60008060006060848603121561208757612086611dcc565b5b600061209586828701612019565b93505060206120a686828701612019565b92505060406120b786828701611f64565b9150509250925092565b6000602082840312156120d7576120d6611dcc565b5b60006120e584828501612019565b91505092915050565b6120f781611f43565b82525050565b600060208201905061211260008301846120ee565b92915050565b600080fd5b600080fd5b7f4e487b7100000000000000000000000000000000000000000000000000000000600052604160045260246000fd5b61215a82611ed7565b810181811067ffffffffffffffff8211171561217957612178612122565b5b80604052505050565b600061218c611dc2565b90506121988282612151565b919050565b600067ffffffffffffffff8211156121b8576121b7612122565b5b6121c182611ed7565b9050602081019050919050565b82818337600083830152505050565b60006121f06121eb8461219d565b612182565b90508281526020810184848401111561220c5761220b61211d565b5b6122178482856121ce565b509392505050565b600082601f83011261223457612233612118565b5b81356122448482602086016121dd565b91505092915050565b6000819050919050565b6122608161224d565b811461226b57600080fd5b50565b60008135905061227d81612257565b92915050565b60008060006060848603121561229c5761229b611dcc565b5b600084013567ffffffffffffffff8111156122ba576122b9611dd1565b5b6122c68682870161221f565b935050602084013567ffffffffffffffff8111156122e7576122e6611dd1565b5b6122f38682870161221f565b92505060406123048682870161226e565b9150509250925092565b6000806040838503121561232557612324611dcc565b5b600061233385828601611f64565b92505060206123448582860161226e565b9150509250929050565b60006040820190506123636000830185611e67565b81810360208301526123758184611ee8565b90509392505050565b61238781611e5b565b811461239257600080fd5b50565b6000813590506123a48161237e565b92915050565b600080604083850312156123c1576123c0611dcc565b5b60006123cf85828601612019565b92505060206123e085828601612395565b9150509250929050565b600060208284031215612400576123ff611dcc565b5b600061240e8482850161226e565b91505092915050565b600067ffffffffffffffff82111561243257612431612122565b5b61243b82611ed7565b9050602081019050919050565b600061245b61245684612417565b612182565b9050828152602081018484840111156124775761247661211d565b5b6124828482856121ce565b509392505050565b600082601f83011261249f5761249e612118565b5b81356124af848260208601612448565b91505092915050565b600080600080608085870312156124d2576124d1611dcc565b5b60006124e087828801612019565b94505060206124f187828801612019565b935050604061250287828801611f64565b925050606085013567ffffffffffffffff81111561252357612522611dd1565b5b61252f8782880161248a565b91505092959194509250565b6000806040838503121561255257612551611dcc565b5b600061256085828601612019565b925050602061257185828601612019565b9150509250929050565b600082825260208201905092915050565b600061259782611e91565b6125a1818561257b565b93506125b1818560208601611ead565b6125ba81611ed7565b840191505092915050565b6125ce8161224d565b82525050565b6125dd81611fc6565b82525050565b6125ec81611f43565b82525050565b600060a083016000830151848203600086015261260f828261258c565b91505060208301518482036020860152612629828261258c565b915050604083015161263e60408601826125c5565b50606083015161265160608601826125d4565b50608083015161266460808601826125e3565b508091505092915050565b6000602082019050818103600083015261268981846125f2565b905092915050565b7f4e487b7100000000000000000000000000000000000000000000000000000000600052602260045260246000fd5b600060028204905060018216806126d857607f821691505b6020821081036126eb576126ea612691565b5b50919050565b7f4552433732313a20617070726f76616c20746f2063757272656e74206f776e6560008201527f7200000000000000000000000000000000000000000000000000000000000000602082015250565b600061274d602183611e9c565b9150612758826126f1565b604082019050919050565b6000602082019050818103600083015261277c81612740565b9050919050565b7f4552433732313a20617070726f76652063616c6c6572206973206e6f7420746f60008201527f6b656e206f776e6572206f7220617070726f76656420666f7220616c6c000000602082015250565b60006127df603d83611e9c565b91506127ea82612783565b604082019050919050565b6000602082019050818103600083015261280e816127d2565b9050919050565b7f4552433732313a2063616c6c6572206973206e6f7420746f6b656e206f776e6560008201527f72206f7220617070726f76656400000000000000000000000000000000000000602082015250565b6000612871602d83611e9c565b915061287c82612815565b604082019050919050565b600060208201905081810360008301526128a081612864565b9050919050565b7f4552433732313a20696e76616c696420746f6b656e2049440000000000000000600082015250565b60006128dd601883611e9c565b91506128e8826128a7565b602082019050919050565b6000602082019050818103600083015261290c816128d0565b9050919050565b7f4552433732313a2061646472657373207a65726f206973206e6f74206120766160008201527f6c6964206f776e65720000000000000000000000000000000000000000000000602082015250565b600061296f602983611e9c565b915061297a82612913565b604082019050919050565b6000602082019050818103600083015261299e81612962565b9050919050565b7f417373657420616c726561647920726567697374657265642100000000000000600082015250565b60006129db601983611e9c565b91506129e6826129a5565b602082019050919050565b60006020820190508181036000830152612a0a816129ce565b9050919050565b7f4e487b7100000000000000000000000000000000000000000000000000000000600052601160045260246000fd5b6000612a4b82611f43565b91507fffffffffffffffffffffffffffffffffffffffffffffffffffffffffffffffff8203612a7d57612a7c612a11565b5b600182019050919050565b60008190508160005260206000209050919050565b60006020601f8301049050919050565b600082821b905092915050565b600060088302612aea7fffffffffffffffffffffffffffffffffffffffffffffffffffffffffffffffff82612aad565b612af48683612aad565b95508019841693508086168417925050509392505050565b6000819050919050565b6000612b31612b2c612b2784611f43565b612b0c565b611f43565b9050919050565b6000819050919050565b612b4b83612b16565b612b5f612b5782612b38565b848454612aba565b825550505050565b600090565b612b74612b67565b612b7f818484612b42565b505050565b5b81811015612ba357612b98600082612b6c565b600181019050612b85565b5050565b601f821115612be857612bb981612a88565b612bc284612a9d565b81016020851015612bd1578190505b612be5612bdd85612a9d565b830182612b84565b50505b505050565b600082821c905092915050565b6000612c0b60001984600802612bed565b1980831691505092915050565b6000612c248383612bfa565b9150826002028217905092915050565b612c3d82611e91565b67ffffffffffffffff811115612c5657612c55612122565b5b612c6082546126c0565b612c6b828285612ba7565b600060209050601f831160018114612c9e5760008415612c8c578287015190505b612c968582612c18565b865550612cfe565b601f198416612cac86612a88565b60005b82811015612cd457848901518255600182019150602085019450602081019050612caf565b86831015612cf15784890151612ced601f891682612bfa565b8355505b6001600288020188555050505b505050505050565b612d0f8161224d565b82525050565b60006060820190508181036000830152612d2f8186611ee8565b9050612d3e6020830185612d06565b612d4b60408301846120ee565b949350505050565b7f546f6b656e20646f6573206e6f74206578697374000000000000000000000000600082015250565b6000612d89601483611e9c565b9150612d9482612d53565b602082019050919050565b60006020820190508181036000830152612db881612d7c565b9050919050565b600081905092915050565b6000612dd582611e91565b612ddf8185612dbf565b9350612def818560208601611ead565b80840191505092915050565b6000612e078285612dca565b9150612e138284612dca565b91508190509392505050565b7f4552433732313a207472616e736665722066726f6d20696e636f72726563742060008201527f6f776e6572000000000000000000000000000000000000000000000000000000602082015250565b6000612e7b602583611e9c565b9150612e8682612e1f565b604082019050919050565b60006020820190508181036000830152612eaa81612e6e565b9050919050565b7f4552433732313a207472616e7366657220746f20746865207a65726f2061646460008201527f7265737300000000000000000000000000000000000000000000000000000000602082015250565b6000612f0d602483611e9c565b9150612f1882612eb1565b604082019050919050565b60006020820190508181036000830152612f3c81612f00565b9050919050565b7f4552433732313a20617070726f766520746f2063616c6c657200000000000000600082015250565b6000612f79601983611e9c565b9150612f8482612f43565b602082019050919050565b60006020820190508181036000830152612fa881612f6c565b9050919050565b7f4552433732313a207472616e7366657220746f206e6f6e20455243373231526560008201527f63656976657220696d706c656d656e7465720000000000000000000000000000602082015250565b600061300b603283611e9c565b915061301682612faf565b604082019050919050565b6000602082019050818103600083015261303a81612ffe565b9050919050565b7f4e487b7100000000000000000000000000000000000000000000000000000000600052601260045260246000fd5b600081519050919050565b600082825260208201905092915050565b600061309782613070565b6130a1818561307b565b93506130b1818560208601611ead565b6130ba81611ed7565b840191505092915050565b60006080820190506130da6000830187611fd8565b6130e76020830186611fd8565b6130f460408301856120ee565b8181036060830152613106818461308c565b905095945050505050565b60008151905061312081611e02565b92915050565b60006020828403121561313c5761313b611dcc565b5b600061314a84828501613111565b91505092915050565b7f4552433732313a206d696e7420746f20746865207a65726f2061646472657373600082015250565b6000613189602083611e9c565b915061319482613153565b602082019050919050565b600060208201905081810360008301526131b88161317c565b9050919050565b7f4552433732313a20746f6b656e20616c7265616479206d696e74656400000000600082015250565b60006131f5601c83611e9c565b9150613200826131bf565b602082019050919050565b60006020820190508181036000830152613224816131e8565b905091905056fea2646970667358221220648c7eb202e36cdf1959adba29b2e559658fe01519c5706ecda28a7a32a8e01c64736f6c634300081c0033",
  "linkReferences": {},
  "deployedLinkReferences": {}
}