{
  "_format": "hh-sol-artifact-1",
  "contractName": "ALULogoToken",
  "sourceName": "contracts/ALULogoToken.sol",
  "abi": [
    {
      "inputs": [
        {
          "internalType": "address",
          "name": "initialOwner",
          "type": "address"
        }
      ],
      "stateMutability": "nonpayable",
      "type": "constructor"
    },
    {
      "anonymous": false,
      "inputs": [
        {
          "indexed": true,
          "internalType": "address",
          "name": "owner",
          "type": "address"
        },
        {
          "indexed": true,
          "internalType": "address",
          "name": "spender",
          "type": "address"
        },
        {
          "indexed": false,
          "internalType": "uint256",
          "name": "value",
          "type": "uint256"
        }
      ],
      "name": "Approval",
      "type": "event"
    },
    {
      "anonymous": false,
      "inputs": [
        {
          "indexed": true,
          "internalType": "address",
          "name": "previousOwner",
          "type": "address"
        },
        {
          "indexed": true,
          "internalType": "address",
          "name": "newOwner",
          "type": "address"
        }
      ],
      "name": "OwnershipTransferred",
      "type": "event"
    },
    {
      "anonymous": false,
      "inputs": [
        {
          "indexed": true,
          "internalType": "address",
          "name": "from",
          "type": "address"
        },
        {
          "indexed": true,
          "internalType": "address",
          "name": "to",
          "type": "address"
        },
        {
          "indexed": false,
          "internalType": "uint256",
          "name": "value",
          "type": "uint256"
        }
      ],
      "name": "Transfer",
      "type": "event"
    },
    {
      "inputs": [],
      "name": "INITIAL_SUPPLY",
      "outputs": [
        {
          "internalType": "uint256",
          "name": "",
          "type": "uint256"
        }
      ],
      "stateMutability": "view",
      "type": "function"
    },
    {
      "inputs": [
        {
          "internalType": "address",
          "name": "owner",
          "type": "address"
        },
        {
          "internalType": "address",
          "name": "spender",
          "type": "address"
        }
      ],
      "name": "allowance",
      "outputs": [
        {
          "internalType": "uint256",
          "name": "",
          "type": "uint256"
        }
      ],
      "stateMutability": "view",
      "type": "function"
    },
    {
      "inputs": [
        {
          "internalType": "address",
          "name": "spender",
          "type": "address"
        },
        {
          "internalType": "uint256",
          "name": "amount",
          "type": "uint256"
        }
      ],
      "name": "approve",
      "outputs": [
        {
          "internalType": "bool",
          "name": "",
          "type": "bool"
        }
      ],
      "stateMutability": "nonpayable",
      "type": "function"
    },
    {
      "inputs": [
        {
          "internalType": "address",
          "name": "account",
          "type": "address"
        }
      ],
      "name": "balanceOf",
      "outputs": [
        {
          "internalType": "uint256",
          "name": "",
          "type": "uint256"
        }
      ],
      "stateMutability": "view",
      "type": "function"
    },
    {
      "inputs": [],
      "name": "decimals",
      "outputs": [
        {
          "internalType": "uint8",
          "name": "",
          "type": "uint8"
        }
      ],
      "stateMutability": "view",
      "type": "function"
    },
    {
      "inputs": [
        {
          "internalType": "address",
          "name": "spender",
          "type": "address"
        },
        {
          "internalType": "uint256",
          "name": "subtractedValue",
          "type": "uint256"
        }
      ],
      "name": "decreaseAllowance",
      "outputs": [
        {
          "internalType": "bool",
          "name": "",
          "type": "bool"
        }
      ],
      "stateMutability": "nonpayable",
      "type": "function"
    },
    {
      "inputs": [
        {
          "internalType": "address",
          "name": "recipient",
          "type": "address"
        },
        {
          "internalType": "uint256",
          "name": "amount",
          "type": "uint256"
        }
      ],
      "name": "distributeShares",
      "outputs": [],
      "stateMutability": "nonpayable",
      "type": "function"
    },
    {
      "inputs": [
        {
          "internalType": "address",
          "name": "spender",
          "type": "address"
        },
        {
          "internalType": "uint256",
          "name": "addedValue",
          "type": "uint256"
        }
      ],
      "name": "increaseAllowance",
      "outputs": [
        {
          "internalType": "bool",
          "name": "",
          "type": "bool"
        }
      ],
      "stateMutability": "nonpayable",
      "type": "function"
    },
    {
      "inputs": [],
      "name": "name",
      "outputs": [
        {
          "internalType": "string",
          "name": "",
          "type": "string"
        }
      ],
      "stateMutability": "view",
      "type": "function"
    },
    {
      "inputs": [],
      "name": "owner",
      "outputs": [
        {
          "internalType": "address",
          "name": "",
          "type": "address"
        }
      ],
      "stateMutability": "view",
      "type": "function"
    },
    {
      "inputs": [
        {
          "internalType": "address",
          "name": "account",
          "type": "address"
        }
      ],
      "name": "ownershipPercentage",
      "outputs": [
        {
          "internalType": "uint256",
          "name": "",
          "type": "uint256"
        }
      ],
      "stateMutability": "view",
      "type": "function"
    },
    {
      "inputs": [],
      "name": "renounceOwnership",
      "outputs": [],
      "stateMutability": "nonpayable",
      "type": "function"
    },
    {
      "inputs": [],
      "name": "symbol",
      "outputs": [
        {
          "internalType": "string",
          "name": "",
          "type": "string"
        }
      ],
      "stateMutability": "view",
      "type": "function"
    },
    {
      "inputs": [],
      "name": "totalSupply",
      "outputs": [
        {
          "internalType": "uint256",
          "name": "",
          "type": "uint256"
        }
      ],
      "stateMutability": "view",
      "type": "function"
    },
    {
      "inputs": [
        {
          "internalType": "address",
          "name": "to",
          "type": "address"
        },
        {
          "internalType": "uint256",
          "name": "amount",
          "type": "uint256"
        }
      ],
      "name": "transfer",
      "outputs": [
        {
          "internalType": "bool",
          "name": "",
          "type": "bool"
        }
      ],
      "stateMutability": "nonpayable",
      "type": "function"
    },
    {
      "inputs": [
        {
          "internalType": "address",
          "name": "from",
          "type": "address"
        },
        {
          "internalType": "address",
          "name": "to",
          "type": "address"
        },
        {
          "internalType": "uint256",
          "name": "amount",
          "type": "uint256"
        }
      ],
      "name": "transferFrom",
      "outputs": [
        {
          "internalType": "bool",
          "name": "",
          "type": "bool"
        }
      ],
      "stateMutability": "nonpayable",
      "type": "function"
    },
    {
      "inputs": [
        {
          "internalType": "address",
          "name": "newOwner",
          "type": "address"
        }
      ],
      "name": "transferOwnership",
      "outputs": [],
      "stateMutability": "nonpayable",
      "type": "function"
    }
  ],
  "bytecode": "0x608060405234801561001057600080fd5b5060405161261838038061261883398181016040528101906100329190610511565b6040518060400160405280600e81526020017f414c55204c6f676f20546f6b656e0000000000000000000000000000000000008152506040518060400160405280600481526020017f414c55540000000000000000000000000000000000000000000000000000000081525081600390816100ad919061078e565b5080600490816100bd919061078e565b5050506100dc6100d161012860201b60201c565b61013060201b60201c565b610113816100ee6101f660201b60201c565b600a6100fa91906109cf565b620f42406101089190610a1a565b6101ff60201b60201c565b6101228161036160201b60201c565b50610c35565b600033905090565b6000600560009054906101000a900473ffffffffffffffffffffffffffffffffffffffff16905081600560006101000a81548173ffffffffffffffffffffffffffffffffffffffff021916908373ffffffffffffffffffffffffffffffffffffffff1602179055508173ffffffffffffffffffffffffffffffffffffffff168173ffffffffffffffffffffffffffffffffffffffff167f8be0079c531659141344cd1fd0a4f28419497f9722a3daafe3b4186f6b6457e060405160405180910390a35050565b60006012905090565b600073ffffffffffffffffffffffffffffffffffffffff168273ffffffffffffffffffffffffffffffffffffffff160361026e576040517f08c379a000000000000000000000000000000000000000000000000000000000815260040161026590610ab9565b60405180910390fd5b610280600083836103f060201b60201c565b80600260008282546102929190610ad9565b92505081905550806000808473ffffffffffffffffffffffffffffffffffffffff1673ffffffffffffffffffffffffffffffffffffffff168152602001908152602001600020600082825401925050819055508173ffffffffffffffffffffffffffffffffffffffff16600073ffffffffffffffffffffffffffffffffffffffff167fddf252ad1be2c89b69c2b068fc378daa952ba7f163c4a11628f55a4df523b3ef836040516103439190610b1c565b60405180910390a361035d600083836103f560201b60201c565b5050565b61036f6103fa60201b60201c565b600073ffffffffffffffffffffffffffffffffffffffff168173ffffffffffffffffffffffffffffffffffffffff16036103de576040517f08c379a00000000000000000000000000000000000000000000000000000000081526004016103d590610ba9565b60405180910390fd5b6103ed8161013060201b60201c565b50565b505050565b505050565b61040861012860201b60201c565b73ffffffffffffffffffffffffffffffffffffffff1661042c61048460201b60201c565b73ffffffffffffffffffffffffffffffffffffffff1614610482576040517f08c379a000000000000000000000000000000000000000000000000000000000815260040161047990610c15565b60405180910390fd5b565b6000600560009054906101000a900473ffffffffffffffffffffffffffffffffffffffff16905090565b600080fd5b600073ffffffffffffffffffffffffffffffffffffffff82169050919050565b60006104de826104b3565b9050919050565b6104ee816104d3565b81146104f957600080fd5b50565b60008151905061050b816104e5565b92915050565b600060208284031215610527576105266104ae565b5b6000610535848285016104fc565b91505092915050565b600081519050919050565b7f4e487b7100000000000000000000000000000000000000000000000000000000600052604160045260246000fd5b7f4e487b7100000000000000000000000000000000000000000000000000000000600052602260045260246000fd5b600060028204905060018216806105bf57607f821691505b6020821081036105d2576105d1610578565b5b50919050565b60008190508160005260206000209050919050565b60006020601f8301049050919050565b600082821b905092915050565b60006008830261063a7fffffffffffffffffffffffffffffffffffffffffffffffffffffffffffffffff826105fd565b61064486836105fd565b95508019841693508086168417925050509392505050565b6000819050919050565b6000819050919050565b600061068b6106866106818461065c565b610666565b61065c565b9050919050565b6000819050919050565b6106a583610670565b6106b96106b182610692565b84845461060a565b825550505050565b600090565b6106ce6106c1565b6106d981848461069c565b505050565b5b818110156106fd576106f26000826106c6565b6001810190506106df565b5050565b601f82111561074257610713816105d8565b61071c846105ed565b8101602085101561072b578190505b61073f610737856105ed565b8301826106de565b50505b505050565b600082821c905092915050565b600061076560001984600802610747565b1980831691505092915050565b600061077e8383610754565b9150826002028217905092915050565b6107978261053e565b67ffffffffffffffff8111156107b0576107af610549565b5b6107ba82546105a7565b6107c5828285610701565b600060209050601f8311600181146107f857600084156107e6578287015190505b6107f08582610772565b865550610858565b601f198416610806866105d8565b60005b8281101561082e57848901518255600182019150602085019450602081019050610809565b8683101561084b5784890151610847601f891682610754565b8355505b6001600288020188555050505b505050505050565b7f4e487b7100000000000000000000000000000000000000000000000000000000600052601160045260246000fd5b60008160011c9050919050565b6000808291508390505b60018511156108e6578086048111156108c2576108c1610860565b5b60018516156108d15780820291505b80810290506108df8561088f565b94506108a6565b94509492505050565b6000826108ff57600190506109bb565b8161090d57600090506109bb565b8160018114610923576002811461092d5761095c565b60019150506109bb565b60ff84111561093f5761093e610860565b5b8360020a91508482111561095657610955610860565b5b506109bb565b5060208310610133831016604e8410600b84101617156109915782820a90508381111561098c5761098b610860565b5b6109bb565b61099e848484600161089c565b925090508184048111156109b5576109b4610860565b5b81810290505b9392505050565b600060ff82169050919050565b60006109da8261065c565b91506109e5836109c2565b9250610a127fffffffffffffffffffffffffffffffffffffffffffffffffffffffffffffffff84846108ef565b905092915050565b6000610a258261065c565b9150610a308361065c565b9250828202610a3e8161065c565b91508282048414831517610a5557610a54610860565b5b5092915050565b600082825260208201905092915050565b7f45524332303a206d696e7420746f20746865207a65726f206164647265737300600082015250565b6000610aa3601f83610a5c565b9150610aae82610a6d565b602082019050919050565b60006020820190508181036000830152610ad281610a96565b9050919050565b6000610ae48261065c565b9150610aef8361065c565b9250828201905080821115610b0757610b06610860565b5b92915050565b610b168161065c565b82525050565b6000602082019050610b316000830184610b0d565b92915050565b7f4f776e61626c653a206e6577206f776e657220697320746865207a65726f206160008201527f6464726573730000000000000000000000000000000000000000000000000000602082015250565b6000610b93602683610a5c565b9150610b9e82610b37565b604082019050919050565b60006020820190508181036000830152610bc281610b86565b9050919050565b7f4f776e61626c653a2063616c6c6572206973206e6f7420746865206f776e6572600082015250565b6000610bff602083610a5c565b9150610c0a82610bc9565b602082019050919050565b60006020820190508181036000830152610c2e81610bf2565b9050919050565b6119d480610c446000396000f3fe608060405234801561001057600080fd5b506004361061010b5760003560e01c8063715018a6116100a2578063a9059cbb11610071578063a9059cbb146102be578063d8dab033146102ee578063dd62ed3e1461031e578063debcf0e51461034e578063f2fde38b1461036a5761010b565b8063715018a6146102485780638da5cb5b1461025257806395d89b4114610270578063a457c2d71461028e5761010b565b80632ff2e9dc116100de5780632ff2e9dc146101ac578063313ce567146101ca57806339509351146101e857806370a08231146102185761010b565b806306fdde0314610110578063095ea7b31461012e57806318160ddd1461015e57806323b872dd1461017c575b600080fd5b610118610386565b6040516101259190610ed7565b60405180910390f35b61014860048036038101906101439190610f92565b610418565b6040516101559190610fed565b60405180910390f35b61016661043b565b6040516101739190611017565b60405180910390f35b61019660048036038101906101919190611032565b610445565b6040516101a39190610fed565b60405180910390f35b6101b4610474565b6040516101c19190611017565b60405180910390f35b6101d261047b565b6040516101df91906110a1565b60405180910390f35b61020260048036038101906101fd9190610f92565b610484565b60405161020f9190610fed565b60405180910390f35b610232600480360381019061022d91906110bc565b6104bb565b60405161023f9190611017565b60405180910390f35b610250610503565b005b61025a610517565b60405161026791906110f8565b60405180910390f35b610278610541565b6040516102859190610ed7565b60405180910390f35b6102a860048036038101906102a39190610f92565b6105d3565b6040516102b59190610fed565b60405180910390f35b6102d860048036038101906102d39190610f92565b61064a565b6040516102e59190610fed565b60405180910390f35b610308600480360381019061030391906110bc565b61066d565b6040516103159190611017565b60405180910390f35b61033860048036038101906103339190611113565b61069d565b6040516103459190611017565b60405180910390f35b61036860048036038101906103639190610f92565b610724565b005b610384600480360381019061037f91906110bc565b6107a3565b005b60606003805461039590611182565b80601f01602080910402602001604051908101604052809291908181526020018280546103c190611182565b801561040e5780601f106103e35761010080835404028352916020019161040e565b820191906000526020600020905b8154815290600101906020018083116103f157829003601f168201915b5050505050905090565b600080610423610826565b905061043081858561082e565b600191505092915050565b6000600254905090565b600080610450610826565b905061045d8582856109f7565b610468858585610a83565b60019150509392505050565b620f424081565b60006012905090565b60008061048f610826565b90506104b08185856104a1858961069d565b6104ab91906111e2565b61082e565b600191505092915050565b60008060008373ffffffffffffffffffffffffffffffffffffffff1673ffffffffffffffffffffffffffffffffffffffff168152602001908152602001600020549050919050565b61050b610cf9565b6105156000610d77565b565b6000600560009054906101000a900473ffffffffffffffffffffffffffffffffffffffff16905090565b60606004805461055090611182565b80601f016020809104026020016040519081016040528092919081815260200182805461057c90611182565b80156105c95780601f1061059e576101008083540402835291602001916105c9565b820191906000526020600020905b8154815290600101906020018083116105ac57829003601f168201915b5050505050905090565b6000806105de610826565b905060006105ec828661069d565b905083811015610631576040517f08c379a000000000000000000000000000000000000000000000000000000000815260040161062890611288565b60405180910390fd5b61063e828686840361082e565b60019250505092915050565b600080610655610826565b9050610662818585610a83565b600191505092915050565b600061067761043b565b6064610682846104bb565b61068c91906112a8565b6106969190611319565b9050919050565b6000600160008473ffffffffffffffffffffffffffffffffffffffff1673ffffffffffffffffffffffffffffffffffffffff16815260200190815260200160002060008373ffffffffffffffffffffffffffffffffffffffff1673ffffffffffffffffffffffffffffffffffffffff16815260200190815260200160002054905092915050565b61072c610cf9565b6000811161076f576040517f08c379a0000000000000000000000000000000000000000000000000000000008152600401610766906113bc565b60405180910390fd5b61079f61077a610517565b8361078361047b565b600a61078f919061150f565b8461079a91906112a8565b610a83565b5050565b6107ab610cf9565b600073ffffffffffffffffffffffffffffffffffffffff168173ffffffffffffffffffffffffffffffffffffffff160361081a576040517f08c379a0000000000000000000000000000000000000000000000000000000008152600401610811906115cc565b60405180910390fd5b61082381610d77565b50565b600033905090565b600073ffffffffffffffffffffffffffffffffffffffff168373ffffffffffffffffffffffffffffffffffffffff160361089d576040517f08c379a00000000000000000000000000000000000000000000000000000000081526004016108949061165e565b60405180910390fd5b600073ffffffffffffffffffffffffffffffffffffffff168273ffffffffffffffffffffffffffffffffffffffff160361090c576040517f08c379a0000000000000000000000000000000000000000000000000000000008152600401610903906116f0565b60405180910390fd5b80600160008573ffffffffffffffffffffffffffffffffffffffff1673ffffffffffffffffffffffffffffffffffffffff16815260200190815260200160002060008473ffffffffffffffffffffffffffffffffffffffff1673ffffffffffffffffffffffffffffffffffffffff168152602001908152602001600020819055508173ffffffffffffffffffffffffffffffffffffffff168373ffffffffffffffffffffffffffffffffffffffff167f8c5be1e5ebec7d5bd14f71427d1e84f3dd0314c0f7b2291e5b200ac8c7c3b925836040516109ea9190611017565b60405180910390a3505050565b6000610a03848461069d565b90507fffffffffffffffffffffffffffffffffffffffffffffffffffffffffffffffff8114610a7d5781811015610a6f576040517f08c379a0000000000000000000000000000000000000000000000000000000008152600401610a669061175c565b60405180910390fd5b610a7c848484840361082e565b5b50505050565b600073ffffffffffffffffffffffffffffffffffffffff168373ffffffffffffffffffffffffffffffffffffffff1603610af2576040517f08c379a0000000000000000000000000000000000000000000000000000000008152600401610ae9906117ee565b60405180910390fd5b600073ffffffffffffffffffffffffffffffffffffffff168273ffffffffffffffffffffffffffffffffffffffff1603610b61576040517f08c379a0000000000000000000000000000000000000000000000000000000008152600401610b5890611880565b60405180910390fd5b610b6c838383610e3d565b60008060008573ffffffffffffffffffffffffffffffffffffffff1673ffffffffffffffffffffffffffffffffffffffff16815260200190815260200160002054905081811015610bf2576040517f08c379a0000000000000000000000000000000000000000000000000000000008152600401610be990611912565b60405180910390fd5b8181036000808673ffffffffffffffffffffffffffffffffffffffff1673ffffffffffffffffffffffffffffffffffffffff16815260200190815260200160002081905550816000808573ffffffffffffffffffffffffffffffffffffffff1673ffffffffffffffffffffffffffffffffffffffff168152602001908152602001600020600082825401925050819055508273ffffffffffffffffffffffffffffffffffffffff168473ffffffffffffffffffffffffffffffffffffffff167fddf252ad1be2c89b69c2b068fc378daa952ba7f163c4a11628f55a4df523b3ef84604051610ce09190611017565b60405180910390a3610cf3848484610e42565b50505050565b610d01610826565b73ffffffffffffffffffffffffffffffffffffffff16610d1f610517565b73ffffffffffffffffffffffffffffffffffffffff1614610d75576040517f08c379a0000000000000000000000000000000000000000000000000000000008152600401610d6c9061197e565b60405180910390fd5b565b6000600560009054906101000a900473ffffffffffffffffffffffffffffffffffffffff16905081600560006101000a81548173ffffffffffffffffffffffffffffffffffffffff021916908373ffffffffffffffffffffffffffffffffffffffff1602179055508173ffffffffffffffffffffffffffffffffffffffff168173ffffffffffffffffffffffffffffffffffffffff167f8be0079c531659141344cd1fd0a4f28419497f9722a3daafe3b4186f6b6457e060405160405180910390a35050565b505050565b505050565b600081519050919050565b600082825260208201905092915050565b60005b83811015610e81578082015181840152602081019050610e66565b60008484015250505050565b6000601f19601f8301169050919050565b6000610ea982610e47565b610eb38185610e52565b9350610ec3818560208601610e63565b610ecc81610e8d565b840191505092915050565b60006020820190508181036000830152610ef18184610e9e565b905092915050565b600080fd5b600073ffffffffffffffffffffffffffffffffffffffff82169050919050565b6000610f2982610efe565b9050919050565b610f3981610f1e565b8114610f4457600080fd5b50565b600081359050610f5681610f30565b92915050565b6000819050919050565b610f6f81610f5c565b8114610f7a57600080fd5b50565b600081359050610f8c81610f66565b92915050565b60008060408385031215610fa957610fa8610ef9565b5b6000610fb785828601610f47565b9250506020610fc885828601610f7d565b9150509250929050565b60008115159050919050565b610fe781610fd2565b82525050565b60006020820190506110026000830184610fde565b92915050565b61101181610f5c565b82525050565b600060208201905061102c6000830184611008565b92915050565b60008060006060848603121561104b5761104a610ef9565b5b600061105986828701610f47565b935050602061106a86828701610f47565b925050604061107b86828701610f7d565b9150509250925092565b600060ff82169050919050565b61109b81611085565b82525050565b60006020820190506110b66000830184611092565b92915050565b6000602082840312156110d2576110d1610ef9565b5b60006110e084828501610f47565b91505092915050565b6110f281610f1e565b82525050565b600060208201905061110d60008301846110e9565b92915050565b6000806040838503121561112a57611129610ef9565b5b600061113885828601610f47565b925050602061114985828601610f47565b9150509250929050565b7f4e487b7100000000000000000000000000000000000000000000000000000000600052602260045260246000fd5b6000600282049050600182168061119a57607f821691505b6020821081036111ad576111ac611153565b5b50919050565b7f4e487b7100000000000000000000000000000000000000000000000000000000600052601160045260246000fd5b60006111ed82610f5c565b91506111f883610f5c565b92508282019050808211156112105761120f6111b3565b5b92915050565b7f45524332303a2064656372656173656420616c6c6f77616e63652062656c6f7760008201527f207a65726f000000000000000000000000000000000000000000000000000000602082015250565b6000611272602583610e52565b915061127d82611216565b604082019050919050565b600060208201905081810360008301526112a181611265565b9050919050565b60006112b382610f5c565b91506112be83610f5c565b92508282026112cc81610f5c565b915082820484148315176112e3576112e26111b3565b5b5092915050565b7f4e487b7100000000000000000000000000000000000000000000000000000000600052601260045260246000fd5b600061132482610f5c565b915061132f83610f5c565b92508261133f5761133e6112ea565b5b828204905092915050565b7f416d6f756e74206d7573742062652067726561746572207468616e207a65726f60008201527f2e00000000000000000000000000000000000000000000000000000000000000602082015250565b60006113a6602183610e52565b91506113b18261134a565b604082019050919050565b600060208201905081810360008301526113d581611399565b9050919050565b60008160011c9050919050565b6000808291508390505b60018511156114335780860481111561140f5761140e6111b3565b5b600185161561141e5780820291505b808102905061142c856113dc565b94506113f3565b94509492505050565b60008261144c5760019050611508565b8161145a5760009050611508565b8160018114611470576002811461147a576114a9565b6001915050611508565b60ff84111561148c5761148b6111b3565b5b8360020a9150848211156114a3576114a26111b3565b5b50611508565b5060208310610133831016604e8410600b84101617156114de5782820a9050838111156114d9576114d86111b3565b5b611508565b6114eb84848460016113e9565b92509050818404811115611502576115016111b3565b5b81810290505b9392505050565b600061151a82610f5c565b915061152583611085565b92506115527fffffffffffffffffffffffffffffffffffffffffffffffffffffffffffffffff848461143c565b905092915050565b7f4f776e61626c653a206e6577206f776e657220697320746865207a65726f206160008201527f6464726573730000000000000000000000000000000000000000000000000000602082015250565b60006115b6602683610e52565b91506115c18261155a565b604082019050919050565b600060208201905081810360008301526115e5816115a9565b9050919050565b7f45524332303a20617070726f76652066726f6d20746865207a65726f2061646460008201527f7265737300000000000000000000000000000000000000000000000000000000602082015250565b6000611648602483610e52565b9150611653826115ec565b604082019050919050565b600060208201905081810360008301526116778161163b565b9050919050565b7f45524332303a20617070726f766520746f20746865207a65726f20616464726560008201527f7373000000000000000000000000000000000000000000000000000000000000602082015250565b60006116da602283610e52565b91506116e58261167e565b604082019050919050565b60006020820190508181036000830152611709816116cd565b9050919050565b7f45524332303a20696e73756666696369656e7420616c6c6f77616e6365000000600082015250565b6000611746601d83610e52565b915061175182611710565b602082019050919050565b6000602082019050818103600083015261177581611739565b9050919050565b7f45524332303a207472616e736665722066726f6d20746865207a65726f20616460008201527f6472657373000000000000000000000000000000000000000000000000000000602082015250565b60006117d8602583610e52565b91506117e38261177c565b604082019050919050565b60006020820190508181036000830152611807816117cb565b9050919050565b7f45524332303a207472616e7366657220746f20746865207a65726f206164647260008201527f6573730000000000000000000000000000000000000000000000000000000000602082015250565b600061186a602383610e52565b91506118758261180e565b604082019050919050565b600060208201905081810360008301526118998161185d565b9050919050565b7f45524332303a207472616e7366657220616d6f756e742065786365656473206260008201527f616c616e63650000000000000000000000000000000000000000000000000000602082015250565b60006118fc602683610e52565b9150611907826118a0565b604082019050919050565b6000602082019050818103600083015261192b816118ef565b9050919050565b7f4f776e61626c653a2063616c6c6572206973206e6f7420746865206f776e6572600082015250565b6000611968602083610e52565b915061197382611932565b602082019050919050565b600060208201905081810360008301526119978161195b565b905091905056fea26469706673582212201886d4a563f70eb7a836cd8b01b9c9dd2cb01b996a55e21437a6b50c1a7155ce64736f6c634300081c0033",
  "linkReferences": {},
  "deployedLinkReferences": {}
}